:10027A0080828486888A8C8E0025190000000000FE
:10028A0000FC006000DA00F2006600B600BE00E082
:10029A0000FE00F600000000000000000000000060
:0A02B500083081838587898B8D8FC7
:0702C000EF60031F80FA222A
:10020A00900282E493FF90028AE493FD120245E48D
:10021A00F538E53890027A93FFE53890028293FD2B
:10022A001202450538E538D3940640E6900282E486
:0B023A0093FF90028AE493FD0202454E
:10024500C29500C29300D29500E4FEEF139294EF9D
:10025500C313FFD29300C293000EBE08EEE4FEED79
:10026500139294EDC313FDD29300C293000EBE0802
:04027500EEC2950040
:010279002262
:10000300E4F53874302538F8E6FF1201C07408258A
:1000130038F8A6070538E538D3940740E6E50854D1
:100023000F25E0248AF582E43402F583E493F5187E
:10003300740193F519E508C4540FF50825E0248AE3
:10004300F582E43402F583E493F51A740193F51B06
:10005300751C00751D02E509540F25E0248AF582FD
:10006300E43402F583E493F51E740193F51FE50967
:10007300C4540FF50925E0248AF582E43402F5839C
:10008300E493F514740193F515751600751702E5DD
:100093000A540F25E0248AF582E43402F583E493BD
:1000A300F510740193F511E50AC4540FF50A25E020
:1000B300248AF582E43402F583E493F51274019300
:0200C300F51333
:0100C5002218
:1001C000E4FEC29500C29300D29500FDEF13929415
:1001D000EFC313FFD29300C293000DBD08EEE4FFFE
:1001E000A294E433FDC43333335480FCEEC3134C88
:1001F000FED29300C293000FBF08E5C29500D293D0
:0902000000C29400D29400AF0684
:0102090022D2
:10015200E4FEEEB40800504D900161F828287302C5
:10016200017902017D0201850201890201910201E8
:100172009502019D0201A1C2908002D290C291C259
:10018200928022C2908002D290D291C2928016C2F4
:10019200908002D290C291D292800AC2908002D202
:1001A20090D291D292EE25E02410F808E6F5A07FD5
:0D01B200641202C0E4F5A00EEE6408709522
:0101BF00221D
:0B02AA0012020A12000312015280F839
:030000000200C635
:0C00C600787FE4F6D8FD75813802010D4A
:1000D2000202AAE493A3F8E493A34003F68001F298
:1000E20008DFF48029E493A3F85407240CC8C3332F
:1000F200C4540F4420C8834004F456800146F6DFFE
:10010200E4800B01020408102040809002B5E47ED6
:10011200019360BCA3FF543F30E509541FFEE493F2
:10012200A360010ECF54C025E060A840B8E493A3B9
:10013200FAE493A3F8E493A3C8C582C8CAC583CAE4
:10014200F0A3C8C582C8CAC583CADFE9DEE780BE9C
:0102BF00003E
:00000001FF
